{
  "contractName": "Lease",
  "abi": [
    {
      "constant": false,
      "inputs": [
        {
          "name": "_name",
          "type": "string"
        },
        {
          "name": "_email",
          "type": "string"
        }
      ],
      "name": "signLease",
      "outputs": [],
      "payable": true,
      "stateMutability": "payable",
      "type": "function"
    },
    {
      "constant": true,
      "inputs": [
        {
          "name": "",
          "type": "address"
        }
      ],
      "name": "leaseApplicants",
      "outputs": [
        {
          "name": "",
          "type": "bool"
        }
      ],
      "payable": false,
      "stateMutability": "view",
      "type": "function"
    },
    {
      "constant": false,
      "inputs": [
        {
          "name": "_leaseApplicant",
          "type": "address"
        }
      ],
      "name": "addApplicant",
      "outputs": [],
      "payable": false,
      "stateMutability": "nonpayable",
      "type": "function"
    },
    {
      "constant": true,
      "inputs": [
        {
          "name": "",
          "type": "address"
        }
      ],
      "name": "leaseSigned",
      "outputs": [
        {
          "name": "",
          "type": "bool"
        }
      ],
      "payable": false,
      "stateMutability": "view",
      "type": "function"
    },
    {
      "constant": true,
      "inputs": [
        {
          "name": "",
          "type": "uint256"
        }
      ],
      "name": "tenantList",
      "outputs": [
        {
          "name": "",
          "type": "address"
        }
      ],
      "payable": false,
      "stateMutability": "view",
      "type": "function"
    },
    {
      "constant": true,
      "inputs": [
        {
          "name": "",
          "type": "address"
        }
      ],
      "name": "tenants",
      "outputs": [
        {
          "name": "addr",
          "type": "address"
        },
        {
          "name": "name",
          "type": "string"
        },
        {
          "name": "email",
          "type": "string"
        },
        {
          "name": "leaseSignDate",
          "type": "uint256"
        }
      ],
      "payable": false,
      "stateMutability": "view",
      "type": "function"
    },
    {
      "inputs": [
        {
          "name": "_rentalInterval",
          "type": "uint256"
        },
        {
          "name": "_rentalAmount",
          "type": "uint256"
        }
      ],
      "payable": false,
      "stateMutability": "nonpayable",
      "type": "constructor"
    },
    {
      "anonymous": false,
      "inputs": [
        {
          "indexed": true,
          "name": "_leaseApplicant",
          "type": "address"
        }
      ],
      "name": "LeaseApplicantAdded",
      "type": "event"
    },
    {
      "anonymous": false,
      "inputs": [
        {
          "indexed": true,
          "name": "_tenant",
          "type": "address"
        },
        {
          "indexed": false,
          "name": "_name",
          "type": "string"
        },
        {
          "indexed": false,
          "name": "_signdate",
          "type": "uint256"
        }
      ],
      "name": "LeaseSigned",
      "type": "event"
    }
  ],
  "bytecode": "0x6060604052341561000f57600080fd5b6040516040806109e083398101604052808051906020019091908051906020019091905050336000806101000a81548173ffffffffffffffffffffffffffffffffffffffff021916908373ffffffffffffffffffffffffffffffffffffffff1602179055508160028190555080600381905550505061094d806100936000396000f300606060405260043610610078576000357c0100000000000000000000000000000000000000000000000000000000900463ffffffff1680631695533d1461007d5780633e03ec20146101125780636ebf2242146101635780637fbe82391461019c57806399c89404146101ed578063fd9153a314610250575b600080fd5b610110600480803590602001908201803590602001908080601f0160208091040260200160405190810160405280939291908181526020018383808284378201915050505050509190803590602001908201803590602001908080601f016020809104026020016040519081016040528093929190818152602001838380828437820191505050505050919050506103e2565b005b341561011d57600080fd5b610149600480803573ffffffffffffffffffffffffffffffffffffffff16906020019091905050610686565b604051808215151515815260200191505060405180910390f35b341561016e57600080fd5b61019a600480803573ffffffffffffffffffffffffffffffffffffffff169060200190919050506106a6565b005b34156101a757600080fd5b6101d3600480803573ffffffffffffffffffffffffffffffffffffffff16906020019091905050610744565b604051808215151515815260200191505060405180910390f35b34156101f857600080fd5b61020e6004808035906020019091905050610764565b604051808273ffffffffffffffffffffffffffffffffffffffff1673ffffffffffffffffffffffffffffffffffffffff16815260200191505060405180910390f35b341561025b57600080fd5b610287600480803573ffffffffffffffffffffffffffffffffffffffff169060200190919050506107a3565b604051808573ffffffffffffffffffffffffffffffffffffffff1673ffffffffffffffffffffffffffffffffffffffff168152602001806020018060200184815260200183810383528681815460018160011615610100020316600290048152602001915080546001816001161561010002031660029004801561034c5780601f106103215761010080835404028352916020019161034c565b820191906000526020600020905b81548152906001019060200180831161032f57829003601f168201915b50508381038252858181546001816001161561010002031660029004815260200191508054600181600116156101000203166002900480156103cf5780601f106103a4576101008083540402835291602001916103cf565b820191906000526020600020905b8154815290600101906020018083116103b257829003601f168201915b5050965050505050505060405180910390f35b6103ea6107f1565b6006600115158160003373ffffffffffffffffffffffffffffffffffffffff1673ffffffffffffffffffffffffffffffffffffffff16815260200190815260200160002060009054906101000a900460ff16151514151561044a57600080fd5b6080604051908101604052803373ffffffffffffffffffffffffffffffffffffffff16815260200185815260200184815260200142815250915060078054806001018281610498919061083c565b916000526020600020900160008460000151909190916101000a81548173ffffffffffffffffffffffffffffffffffffffff021916908373ffffffffffffffffffffffffffffffffffffffff160217905550508160046000846000015173ffffffffffffffffffffffffffffffffffffffff1673ffffffffffffffffffffffffffffffffffffffff16815260200190815260200160002060008201518160000160006101000a81548173ffffffffffffffffffffffffffffffffffffffff021916908373ffffffffffffffffffffffffffffffffffffffff1602179055506020820151816001019080519060200190610592929190610868565b5060408201518160020190805190602001906105af929190610868565b5060608201518160030155905050816000015173ffffffffffffffffffffffffffffffffffffffff167f8b08b6e27a5b23641b67ee785609d1b480b247ae468508deda4bb4d9c439415d8584606001516040518080602001838152602001828103825284818151815260200191508051906020019080838360005b8381101561064557808201518184015260208101905061062a565b50505050905090810190601f1680156106725780820380516001836020036101000a031916815260200191505b50935050505060405180910390a250505050565b60066020528060005260406000206000915054906101000a900460ff1681565b6001600660008373ffffffffffffffffffffffffffffffffffffffff1673ffffffffffffffffffffffffffffffffffffffff16815260200190815260200160002060006101000a81548160ff0219169083151502179055508073ffffffffffffffffffffffffffffffffffffffff167f3a3ecaf574390f4916b5710c1a5bf701fa52377e75974f389bb8c2f4fbfd0f1960405160405180910390a250565b60056020528060005260406000206000915054906101000a900460ff1681565b60078181548110151561077357fe5b90600052602060002090016000915054906101000a900473ffffffffffffffffffffffffffffffffffffffff1681565b60046020528060005260406000206000915090508060000160009054906101000a900473ffffffffffffffffffffffffffffffffffffffff1690806001019080600201908060030154905084565b608060405190810160405280600073ffffffffffffffffffffffffffffffffffffffff1681526020016108226108e8565b815260200161082f6108e8565b8152602001600081525090565b8154818355818115116108635781836000526020600020918201910161086291906108fc565b5b505050565b828054600181600116156101000203166002900490600052602060002090601f016020900481019282601f106108a957805160ff19168380011785556108d7565b828001600101855582156108d7579182015b828111156108d65782518255916020019190600101906108bb565b5b5090506108e491906108fc565b5090565b602060405190810160405280600081525090565b61091e91905b8082111561091a576000816000905550600101610902565b5090565b905600a165627a7a72305820ab9a9421eff559502bb7ead1b21790354c3435149a3a826774b686ce277166400029",
  "source": "pragma solidity ^0.4.18;\n\n/*\n  # Unit Contract\n\n   - Add all leases associated with this unit to this contract\n\n  ## Methods\n    - add lease\n    - terminate lease\n*/\n\ncontract Lease {\n    struct Tenant {\n        address addr;\n        string name;\n        string email;\n        uint256 leaseSignDate;\n    }\n\n    uint256 constant weiPerEther = 1000000000000000000;\n\n    address propertyManager;\n    string description;\n    uint256 rentalInterval;\n    uint256 rentalAmount;\n\n    mapping (address => Tenant) public tenants;\n    mapping (address => bool) public leaseSigned;\n    mapping (address => bool) public leaseApplicants;\n    address[] public tenantList;\n\n\n    /* Events */\n    event LeaseApplicantAdded(\n      address indexed _leaseApplicant\n    );\n    event LeaseSigned(\n      address indexed _tenant,\n      string _name,\n      uint256 _signdate\n    );\n\n    function Lease(uint256 _rentalInterval, uint256 _rentalAmount) public {\n        propertyManager = msg.sender;\n        rentalInterval = _rentalInterval;\n        rentalAmount = _rentalAmount;\n    }\n\n    // Valid lease applicants are added to this list\n    function addApplicant(address _leaseApplicant) public {\n      leaseApplicants[_leaseApplicant] = true;\n      LeaseApplicantAdded(_leaseApplicant);\n    }\n\n    function signLease(string _name, string _email)\n      public\n      isIn(leaseApplicants)\n      payable\n      {\n        Tenant memory _tenant = Tenant({\n            addr: msg.sender,\n            name: _name,\n            email: _email,\n            leaseSignDate: now\n        });\n        tenantList.push(_tenant.addr) ;\n        tenants[_tenant.addr] = _tenant;\n        LeaseSigned(_tenant.addr, _name, _tenant.leaseSignDate);\n    }\n\n    modifier isIn(mapping (address => bool) _arr) {\n      require(_arr[msg.sender] == true);\n      _;\n    }\n\n    modifier byOnly(address _account) {\n        require(msg.sender == _account);\n        _;\n    }\n\n    function getTenant(address _tenantAddress) internal constant returns (Tenant) {\n        return tenants[_tenantAddress];\n    }\n}\n",
  "sourcePath": "/home/altairmn/Projects/LeaseChain/LeaseChain.js/contracts/Lease.sol",
  "compiler": {
    "name": "solc",
    "version": "0.4.18+commit.9cf6e910.Emscripten.clang"
  },
  "schemaVersion": "1.0.1",
  "updatedAt": "2018-02-03T05:04:36.613Z"
}